{"contracts/Voting.sol":{"Voting":{"abi":[{"inputs":[],"stateMutability":"nonpayable","type":"constructor"},{"anonymous":false,"inputs":[{"indexed":true,"internalType":"uint256","name":"candidateId","type":"uint256"},{"indexed":false,"internalType":"string","name":"district","type":"string"}],"name":"Voted","type":"event"},{"inputs":[{"internalType":"uint256","name":"_candidateId","type":"uint256"},{"internalType":"string","name":"_district","type":"string"}],"name":"addCandidate","outputs":[],"stateMutability":"nonpayable","type":"function"},{"inputs":[{"internalType":"uint256","name":"","type":"uint256"}],"name":"candidates","outputs":[{"internalType":"string","name":"district","type":"string"},{"internalType":"uint256","name":"candidateId","type":"uint256"},{"internalType":"uint256","name":"voteCount","type":"uint256"}],"stateMutability":"view","type":"function"},{"inputs":[],"name":"getAllVotesOfCandidates","outputs":[{"components":[{"internalType":"string","name":"district","type":"string"},{"internalType":"uint256","name":"candidateId","type":"uint256"},{"internalType":"uint256","name":"voteCount","type":"uint256"}],"internalType":"struct Voting.Candidate[]","name":"","type":"tuple[]"}],"stateMutability":"view","type":"function"},{"inputs":[],"name":"owner","outputs":[{"internalType":"address","name":"","type":"address"}],"stateMutability":"view","type":"function"},{"inputs":[{"internalType":"uint256","name":"_candidateId","type":"uint256"},{"internalType":"string","name":"_district","type":"string"}],"name":"vote","outputs":[],"stateMutability":"nonpayable","type":"function"},{"inputs":[{"internalType":"address","name":"","type":"address"}],"name":"voters","outputs":[{"internalType":"bool","name":"","type":"bool"}],"stateMutability":"view","type":"function"}],"evm":{"bytecode":{"linkReferences":{},"object":"60806040523480156200001157600080fd5b50600280546001600160a01b031916331790556200002e62000034565b620005cd565b6002546001600160a01b03163314620000a25760405162461bcd60e51b815260206004820152602660248201527f4f6e6c7920746865206f776e65722063616e20706572666f726d20746869732060448201526530b1ba34b7b760d11b606482015260840160405180910390fd5b6040805160a081018252600c606082019081526b54686f6f7468756b6b75646960a01b6080830152815260016020808301829052600093830184905283549182018455928052815180519293600390920260008051602062000fb08339815191520192620001149284920190620004ea565b50602082810151600180840191909155604093840151600293840155835160a081018552600c606082019081526b54686f6f7468756b6b75646960a01b608083015281528083019390935260009383018490528354908101845592805281518051929360030260008051602062000fb083398151915201926200019b9284920190620004ea565b50602082810151600180840191909155604093840151600290930192909255825160a081018452600c606082019081526b54686f6f7468756b6b75646960a01b6080830152815260038183018190526000948201859052845493840185559380528051805191949390930260008051602062000fb0833981519152019262000228928492910190620004ea565b50602082810151600180840191909155604093840151600290930192909255825160a081018452600c606082019081526b54686f6f7468756b6b75646960a01b6080830152815260048183015260009381018490528354928301845592805282518051600390930260008051602062000fb08339815191520192620002b19284920190620004ea565b50602082810151600180840191909155604093840151600290930192909255825160a081018452600b606082019081526a546972756e656c76656c6960a81b6080830152815260058183015260009381018490528354928301845592805282518051600390930260008051602062000fb08339815191520192620003399284920190620004ea565b50602082810151600180840191909155604093840151600290930192909255825160a081018452600b606082019081526a546972756e656c76656c6960a81b6080830152815260068183015260009381018490528354928301845592805282518051600390930260008051602062000fb08339815191520192620003c19284920190620004ea565b50602082810151600180840191909155604093840151600290930192909255825160a081018452600b606082019081526a546972756e656c76656c6960a81b6080830152815260078183015260009381018490528354928301845592805282518051600390930260008051602062000fb08339815191520192620004499284920190620004ea565b50602082810151600180840191909155604093840151600290930192909255825160a081018452600b606082019081526a546972756e656c76656c6960a81b6080830152815260088183015260009381018490528354928301845592805282518051600390930260008051602062000fb08339815191520192620004d19284920190620004ea565b5060208201518160010155604082015181600201555050565b828054620004f89062000590565b90600052602060002090601f0160209004810192826200051c576000855562000567565b82601f106200053757805160ff191683800117855562000567565b8280016001018555821562000567579182015b82811115620005675782518255916020019190600101906200054a565b506200057592915062000579565b5090565b5b808211156200057557600081556001016200057a565b600181811c90821680620005a557607f821691505b60208210811415620005c757634e487b7160e01b600052602260045260246000fd5b50919050565b6109d380620005dd6000396000f3fe608060405234801561001057600080fd5b50600436106100625760003560e01c80631750a3d014610067578063241084751461007c5780633477ee2e1461008f5780638da5cb5b146100ba57806390a9ab90146100e5578063a3ec138d146100fa575b600080fd5b61007a6100753660046106d1565b61012d565b005b61007a61008a3660046106d1565b610217565b6100a261009d3660046106b9565b61042b565b6040516100b193929190610900565b60405180910390f35b6002546100cd906001600160a01b031681565b6040516001600160a01b0390911681526020016100b1565b6100ed6104ed565b6040516100b1919061086d565b61011d61010836600461068b565b60016020526000908152604090205460ff1681565b60405190151581526020016100b1565b6002546001600160a01b0316331461019b5760405162461bcd60e51b815260206004820152602660248201527f4f6e6c7920746865206f776e65722063616e20706572666f726d20746869732060448201526530b1ba34b7b760d11b60648201526084015b60405180910390fd5b604080516060810182528281526020808201859052600092820183905282546001810184559280528151805192936003027f290decd9548b62a8d60345a988386fc84ba6bc95484008f6362f93160ef3e56301926101fc92849201906105f2565b50602082015181600101556040820151816002015550505050565b3360009081526001602052604090205460ff16156102775760405162461bcd60e51b815260206004820152601760248201527f596f75206861766520616c726561647920766f7465642e0000000000000000006044820152606401610192565b60005b6000548110156103c7578180519060200120600082815481106102ad57634e487b7160e01b600052603260045260246000fd5b90600052602060002090600302016000016040516102cb91906107d2565b6040518091039020148015610311575082600082815481106102fd57634e487b7160e01b600052603260045260246000fd5b906000526020600020906003020160010154145b156103b5576000818154811061033757634e487b7160e01b600052603260045260246000fd5b60009182526020822060026003909202010180549161035583610960565b909155505033600090815260016020819052604091829020805460ff191690911790555183907fb0fa784f6c9ce4625e023c4cb4b392b871163af5c58729e7a7b8f7cdaff54f17906103a89085906108ed565b60405180910390a2505050565b806103bf81610960565b91505061027a565b5060405162461bcd60e51b815260206004820152603260248201527f43616e646964617465206e6f7420666f756e6420666f7220746865206769766560448201527137103234b9ba3934b1ba1030b7321024a21760711b6064820152608401610192565b6000818154811061043b57600080fd5b906000526020600020906003020160009150905080600001805461045e90610925565b80601f016020809104026020016040519081016040528092919081815260200182805461048a90610925565b80156104d75780601f106104ac576101008083540402835291602001916104d7565b820191906000526020600020905b8154815290600101906020018083116104ba57829003601f168201915b5050505050908060010154908060020154905083565b60606000805480602002602001604051908101604052809291908181526020016000905b828210156105e9578382906000526020600020906003020160405180606001604052908160008201805461054490610925565b80601f016020809104026020016040519081016040528092919081815260200182805461057090610925565b80156105bd5780601f10610592576101008083540402835291602001916105bd565b820191906000526020600020905b8154815290600101906020018083116105a057829003601f168201915b505050505081526020016001820154815260200160028201548152505081526020019060010190610511565b50505050905090565b8280546105fe90610925565b90600052602060002090601f0160209004810192826106205760008555610666565b82601f1061063957805160ff1916838001178555610666565b82800160010185558215610666579182015b8281111561066657825182559160200191906001019061064b565b50610672929150610676565b5090565b5b808211156106725760008155600101610677565b60006020828403121561069c578081fd5b81356001600160a01b03811681146106b2578182fd5b9392505050565b6000602082840312156106ca578081fd5b5035919050565b600080604083850312156106e3578081fd5b82359150602083013567ffffffffffffffff80821115610701578283fd5b818501915085601f830112610714578283fd5b81358181111561072657610726610987565b604051601f8201601f19908116603f0116810190838211818310171561074e5761074e610987565b81604052828152886020848701011115610766578586fd5b82602086016020830137856020848301015280955050505050509250929050565b60008151808452815b818110156107ac57602081850181015186830182015201610790565b818111156107bd5782602083870101525b50601f01601f19169290920160200192915050565b600080835482600182811c9150808316806107ee57607f831692505b602080841082141561080e57634e487b7160e01b87526022600452602487fd5b81801561082257600181146108335761085f565b60ff1986168952848901965061085f565b60008a815260209020885b868110156108575781548b82015290850190830161083e565b505084890196505b509498975050505050505050565b60006020808301818452808551808352604092508286019150828160051b870101848801865b838110156108df57603f198984030185528151606081518186526108b982870182610787565b838b0151878c015292890151958901959095525094870194925090860190600101610893565b509098975050505050505050565b6020815260006106b26020830184610787565b6060815260006109136060830186610787565b60208301949094525060400152919050565b600181811c9082168061093957607f821691505b6020821081141561095a57634e487b7160e01b600052602260045260246000fd5b50919050565b600060001982141561098057634e487b7160e01b81526011600452602481fd5b5060010190565b634e487b7160e01b600052604160045260246000fdfea2646970667358221220f578f9c088b26cfccf9a8e1c30e3815a459f08eef4a830723168fd9e240ae30f64736f6c63430008040033290decd9548b62a8d60345a988386fc84ba6bc95484008f6362f93160ef3e563","opcodes":"PUSH1 0x80 PUSH1 0x40 MSTORE CALLVALUE DUP1 ISZERO PUSH3 0x11 JUMPI PUSH1 0x0 DUP1 REVERT JUMPDEST POP PUSH1 0x2 DUP1 SLOAD PUSH1 0x1 PUSH1 0x1 PUSH1 0xA0 SHL SUB NOT AND CALLER OR SWAP1 SSTORE PUSH3 0x2E PUSH3 0x34 JUMP JUMPDEST PUSH3 0x5CD JUMP JUMPDEST PUSH1 0x2 SLOAD PUSH1 0x1 PUSH1 0x1 PUSH1 0xA0 SHL SUB AND CALLER EQ PUSH3 0xA2 JUMPI PUSH1 0x40 MLOAD PUSH3 0x461BCD PUSH1 0xE5 SHL DUP2 MSTORE PUSH1 0x20 PUSH1 0x4 DUP3 ADD MSTORE PUSH1 0x26 PUSH1 0x24 DUP3 ADD MSTORE PUSH32 0x4F6E6C7920746865206F776E65722063616E20706572666F726D207468697320 PUSH1 0x44 DUP3 ADD MSTORE PUSH6 0x30B1BA34B7B7 PUSH1 0xD1 SHL PUSH1 0x64 DUP3 ADD MSTORE PUSH1 0x84 ADD PUSH1 0x40 MLOAD DUP1 SWAP2 SUB SWAP1 REVERT JUMPDEST PUSH1 0x40 DUP1 MLOAD PUSH1 0xA0 DUP2 ADD DUP3 MSTORE PUSH1 0xC PUSH1 0x60 DUP3 ADD SWAP1 DUP2 MSTORE PUSH12 0x54686F6F7468756B6B756469 PUSH1 0xA0 SHL PUSH1 0x80 DUP4 ADD MSTORE DUP2 MSTORE PUSH1 0x1 PUSH1 0x20 DUP1 DUP4 ADD DUP3 SWAP1 MSTORE PUSH1 0x0 SWAP4 DUP4 ADD DUP5 SWAP1 MSTORE DUP4 SLOAD SWAP2 DUP3 ADD DUP5 SSTORE SWAP3 DUP1 MSTORE DUP2 MLOAD DUP1 MLOAD SWAP3 SWAP4 PUSH1 0x3 SWAP1 SWAP3 MUL PUSH1 0x0 DUP1 MLOAD PUSH1 0x20 PUSH3 0xFB0 DUP4 CODECOPY DUP2 MLOAD SWAP2 MSTORE ADD SWAP3 PUSH3 0x114 SWAP3 DUP5 SWAP3 ADD SWAP1 PUSH3 0x4EA JUMP JUMPDEST POP PUSH1 0x20 DUP3 DUP2 ADD MLOAD PUSH1 0x1 DUP1 DUP5 ADD SWAP2 SWAP1 SWAP2 SSTORE PUSH1 0x40 SWAP4 DUP5 ADD MLOAD PUSH1 0x2 SWAP4 DUP5 ADD SSTORE DUP4 MLOAD PUSH1 0xA0 DUP2 ADD DUP6 MSTORE PUSH1 0xC PUSH1 0x60 DUP3 ADD SWAP1 DUP2 MSTORE PUSH12 0x54686F6F7468756B6B756469 PUSH1 0xA0 SHL PUSH1 0x80 DUP4 ADD MSTORE DUP2 MSTORE DUP1 DUP4 ADD SWAP4 SWAP1 SWAP4 MSTORE PUSH1 0x0 SWAP4 DUP4 ADD DUP5 SWAP1 MSTORE DUP4 SLOAD SWAP1 DUP2 ADD DUP5 SSTORE SWAP3 DUP1 MSTORE DUP2 MLOAD DUP1 MLOAD SWAP3 SWAP4 PUSH1 0x3 MUL PUSH1 0x0 DUP1 MLOAD PUSH1 0x20 PUSH3 0xFB0 DUP4 CODECOPY DUP2 MLOAD SWAP2 MSTORE ADD SWAP3 PUSH3 0x19B SWAP3 DUP5 SWAP3 ADD SWAP1 PUSH3 0x4EA JUMP JUMPDEST POP PUSH1 0x20 DUP3 DUP2 ADD MLOAD PUSH1 0x1 DUP1 DUP5 ADD SWAP2 SWAP1 SWAP2 SSTORE PUSH1 0x40 SWAP4 DUP5 ADD MLOAD PUSH1 0x2 SWAP1 SWAP4 ADD SWAP3 SWAP1 SWAP3 SSTORE DUP3 MLOAD PUSH1 0xA0 DUP2 ADD DUP5 MSTORE PUSH1 0xC PUSH1 0x60 DUP3 ADD SWAP1 DUP2 MSTORE PUSH12 0x54686F6F7468756B6B756469 PUSH1 0xA0 SHL PUSH1 0x80 DUP4 ADD MSTORE DUP2 MSTORE PUSH1 0x3 DUP2 DUP4 ADD DUP2 SWAP1 MSTORE PUSH1 0x0 SWAP5 DUP3 ADD DUP6 SWAP1 MSTORE DUP5 SLOAD SWAP4 DUP5 ADD DUP6 SSTORE SWAP4 DUP1 MSTORE DUP1 MLOAD DUP1 MLOAD SWAP2 SWAP5 SWAP4 SWAP1 SWAP4 MUL PUSH1 0x0 DUP1 MLOAD PUSH1 0x20 PUSH3 0xFB0 DUP4 CODECOPY DUP2 MLOAD SWAP2 MSTORE ADD SWAP3 PUSH3 0x228 SWAP3 DUP5 SWAP3 SWAP2 ADD SWAP1 PUSH3 0x4EA JUMP JUMPDEST POP PUSH1 0x20 DUP3 DUP2 ADD MLOAD PUSH1 0x1 DUP1 DUP5 ADD SWAP2 SWAP1 SWAP2 SSTORE PUSH1 0x40 SWAP4 DUP5 ADD MLOAD PUSH1 0x2 SWAP1 SWAP4 ADD SWAP3 SWAP1 SWAP3 SSTORE DUP3 MLOAD PUSH1 0xA0 DUP2 ADD DUP5 MSTORE PUSH1 0xC PUSH1 0x60 DUP3 ADD SWAP1 DUP2 MSTORE PUSH12 0x54686F6F7468756B6B756469 PUSH1 0xA0 SHL PUSH1 0x80 DUP4 ADD MSTORE DUP2 MSTORE PUSH1 0x4 DUP2 DUP4 ADD MSTORE PUSH1 0x0 SWAP4 DUP2 ADD DUP5 SWAP1 MSTORE DUP4 SLOAD SWAP3 DUP4 ADD DUP5 SSTORE SWAP3 DUP1 MSTORE DUP3 MLOAD DUP1 MLOAD PUSH1 0x3 SWAP1 SWAP4 MUL PUSH1 0x0 DUP1 MLOAD PUSH1 0x20 PUSH3 0xFB0 DUP4 CODECOPY DUP2 MLOAD SWAP2 MSTORE ADD SWAP3 PUSH3 0x2B1 SWAP3 DUP5 SWAP3 ADD SWAP1 PUSH3 0x4EA JUMP JUMPDEST POP PUSH1 0x20 DUP3 DUP2 ADD MLOAD PUSH1 0x1 DUP1 DUP5 ADD SWAP2 SWAP1 SWAP2 SSTORE PUSH1 0x40 SWAP4 DUP5 ADD MLOAD PUSH1 0x2 SWAP1 SWAP4 ADD SWAP3 SWAP1 SWAP3 SSTORE DUP3 MLOAD PUSH1 0xA0 DUP2 ADD DUP5 MSTORE PUSH1 0xB PUSH1 0x60 DUP3 ADD SWAP1 DUP2 MSTORE PUSH11 0x546972756E656C76656C69 PUSH1 0xA8 SHL PUSH1 0x80 DUP4 ADD MSTORE DUP2 MSTORE PUSH1 0x5 DUP2 DUP4 ADD MSTORE PUSH1 0x0 SWAP4 DUP2 ADD DUP5 SWAP1 MSTORE DUP4 SLOAD SWAP3 DUP4 ADD DUP5 SSTORE SWAP3 DUP1 MSTORE DUP3 MLOAD DUP1 MLOAD PUSH1 0x3 SWAP1 SWAP4 MUL PUSH1 0x0 DUP1 MLOAD PUSH1 0x20 PUSH3 0xFB0 DUP4 CODECOPY DUP2 MLOAD SWAP2 MSTORE ADD SWAP3 PUSH3 0x339 SWAP3 DUP5 SWAP3 ADD SWAP1 PUSH3 0x4EA JUMP JUMPDEST POP PUSH1 0x20 DUP3 DUP2 ADD MLOAD PUSH1 0x1 DUP1 DUP5 ADD SWAP2 SWAP1 SWAP2 SSTORE PUSH1 0x40 SWAP4 DUP5 ADD MLOAD PUSH1 0x2 SWAP1 SWAP4 ADD SWAP3 SWAP1 SWAP3 SSTORE DUP3 MLOAD PUSH1 0xA0 DUP2 ADD DUP5 MSTORE PUSH1 0xB PUSH1 0x60 DUP3 ADD SWAP1 DUP2 MSTORE PUSH11 0x546972756E656C76656C69 PUSH1 0xA8 SHL PUSH1 0x80 DUP4 ADD MSTORE DUP2 MSTORE PUSH1 0x6 DUP2 DUP4 ADD MSTORE PUSH1 0x0 SWAP4 DUP2 ADD DUP5 SWAP1 MSTORE DUP4 SLOAD SWAP3 DUP4 ADD DUP5 SSTORE SWAP3 DUP1 MSTORE DUP3 MLOAD DUP1 MLOAD PUSH1 0x3 SWAP1 SWAP4 MUL PUSH1 0x0 DUP1 MLOAD PUSH1 0x20 PUSH3 0xFB0 DUP4 CODECOPY DUP2 MLOAD SWAP2 MSTORE ADD SWAP3 PUSH3 0x3C1 SWAP3 DUP5 SWAP3 ADD SWAP1 PUSH3 0x4EA JUMP JUMPDEST POP PUSH1 0x20 DUP3 DUP2 ADD MLOAD PUSH1 0x1 DUP1 DUP5 ADD SWAP2 SWAP1 SWAP2 SSTORE PUSH1 0x40 SWAP4 DUP5 ADD MLOAD PUSH1 0x2 SWAP1 SWAP4 ADD SWAP3 SWAP1 SWAP3 SSTORE DUP3 MLOAD PUSH1 0xA0 DUP2 ADD DUP5 MSTORE PUSH1 0xB PUSH1 0x60 DUP3 ADD SWAP1 DUP2 MSTORE PUSH11 0x546972756E656C76656C69 PUSH1 0xA8 SHL PUSH1 0x80 DUP4 ADD MSTORE DUP2 MSTORE PUSH1 0x7 DUP2 DUP4 ADD MSTORE PUSH1 0x0 SWAP4 DUP2 ADD DUP5 SWAP1 MSTORE DUP4 SLOAD SWAP3 DUP4 ADD DUP5 SSTORE SWAP3 DUP1 MSTORE DUP3 MLOAD DUP1 MLOAD PUSH1 0x3 SWAP1 SWAP4 MUL PUSH1 0x0 DUP1 MLOAD PUSH1 0x20 PUSH3 0xFB0 DUP4 CODECOPY DUP2 MLOAD SWAP2 MSTORE ADD SWAP3 PUSH3 0x449 SWAP3 DUP5 SWAP3 ADD SWAP1 PUSH3 0x4EA JUMP JUMPDEST POP PUSH1 0x20 DUP3 DUP2 ADD MLOAD PUSH1 0x1 DUP1 DUP5 ADD SWAP2 SWAP1 SWAP2 SSTORE PUSH1 0x40 SWAP4 DUP5 ADD MLOAD PUSH1 0x2 SWAP1 SWAP4 ADD SWAP3 SWAP1 SWAP3 SSTORE DUP3 MLOAD PUSH1 0xA0 DUP2 ADD DUP5 MSTORE PUSH1 0xB PUSH1 0x60 DUP3 ADD SWAP1 DUP2 MSTORE PUSH11 0x546972756E656C76656C69 PUSH1 0xA8 SHL PUSH1 0x80 DUP4 ADD MSTORE DUP2 MSTORE PUSH1 0x8 DUP2 DUP4 ADD MSTORE PUSH1 0x0 SWAP4 DUP2 ADD DUP5 SWAP1 MSTORE DUP4 SLOAD SWAP3 DUP4 ADD DUP5 SSTORE SWAP3 DUP1 MSTORE DUP3 MLOAD DUP1 MLOAD PUSH1 0x3 SWAP1 SWAP4 MUL PUSH1 0x0 DUP1 MLOAD PUSH1 0x20 PUSH3 0xFB0 DUP4 CODECOPY DUP2 MLOAD SWAP2 MSTORE ADD SWAP3 PUSH3 0x4D1 SWAP3 DUP5 SWAP3 ADD SWAP1 PUSH3 0x4EA JUMP JUMPDEST POP PUSH1 0x20 DUP3 ADD MLOAD DUP2 PUSH1 0x1 ADD SSTORE PUSH1 0x40 DUP3 ADD MLOAD DUP2 PUSH1 0x2 ADD SSTORE POP POP JUMP JUMPDEST DUP3 DUP1 SLOAD PUSH3 0x4F8 SWAP1 PUSH3 0x590 JUMP JUMPDEST SWAP1 PUSH1 0x0 MSTORE PUSH1 0x20 PUSH1 0x0 KECCAK256 SWAP1 PUSH1 0x1F ADD PUSH1 0x20 SWAP1 DIV DUP2 ADD SWAP3 DUP3 PUSH3 0x51C JUMPI PUSH1 0x0 DUP6 SSTORE PUSH3 0x567 JUMP JUMPDEST DUP3 PUSH1 0x1F LT PUSH3 0x537 JUMPI DUP1 MLOAD PUSH1 0xFF NOT AND DUP4 DUP1 ADD OR DUP6 SSTORE PUSH3 0x567 JUMP JUMPDEST DUP3 DUP1 ADD PUSH1 0x1 ADD DUP6 SSTORE DUP3 ISZERO PUSH3 0x567 JUMPI SWAP2 DUP3 ADD JUMPDEST DUP3 DUP2 GT ISZERO PUSH3 0x567 JUMPI DUP3 MLOAD DUP3 SSTORE SWAP2 PUSH1 0x20 ADD SWAP2 SWAP1 PUSH1 0x1 ADD SWAP1 PUSH3 0x54A JUMP JUMPDEST POP PUSH3 0x575 SWAP3 SWAP2 POP PUSH3 0x579 JUMP JUMPDEST POP SWAP1 JUMP JUMPDEST JUMPDEST DUP1 DUP3 GT ISZERO PUSH3 0x575 JUMPI PUSH1 0x0 DUP2 SSTORE PUSH1 0x1 ADD PUSH3 0x57A JUMP JUMPDEST PUSH1 0x1 DUP2 DUP2 SHR SWAP1 DUP3 AND DUP1 PUSH3 0x5A5 JUMPI PUSH1 0x7F DUP3 AND SWAP2 POP JUMPDEST PUSH1 0x20 DUP3 LT DUP2 EQ ISZERO PUSH3 0x5C7 JUMPI PUSH4 0x4E487B71 PUSH1 0xE0 SHL PUSH1 0x0 MSTORE PUSH1 0x22 PUSH1 0x4 MSTORE PUSH1 0x24 PUSH1 0x0 REVERT JUMPDEST POP SWAP2 SWAP1 POP JUMP JUMPDEST PUSH2 0x9D3 DUP1 PUSH3 0x5DD PUSH1 0x0 CODECOPY PUSH1 0x0 RETURN INVALID PUSH1 0x80 PUSH1 0x40 MSTORE CALLVALUE DUP1 ISZERO PUSH2 0x10 JUMPI PUSH1 0x0 DUP1 REVERT JUMPDEST POP PUSH1 0x4 CALLDATASIZE LT PUSH2 0x62 JUMPI PUSH1 0x0 CALLDATALOAD PUSH1 0xE0 SHR DUP1 PUSH4 0x1750A3D0 EQ PUSH2 0x67 JUMPI DUP1 PUSH4 0x24108475 EQ PUSH2 0x7C JUMPI DUP1 PUSH4 0x3477EE2E EQ PUSH2 0x8F JUMPI DUP1 PUSH4 0x8DA5CB5B EQ PUSH2 0xBA JUMPI DUP1 PUSH4 0x90A9AB90 EQ PUSH2 0xE5 JUMPI DUP1 PUSH4 0xA3EC138D EQ PUSH2 0xFA JUMPI JUMPDEST PUSH1 0x0 DUP1 REVERT JUMPDEST PUSH2 0x7A PUSH2 0x75 CALLDATASIZE PUSH1 0x4 PUSH2 0x6D1 JUMP JUMPDEST PUSH2 0x12D JUMP JUMPDEST STOP JUMPDEST PUSH2 0x7A PUSH2 0x8A CALLDATASIZE PUSH1 0x4 PUSH2 0x6D1 JUMP JUMPDEST PUSH2 0x217 JUMP JUMPDEST PUSH2 0xA2 PUSH2 0x9D CALLDATASIZE PUSH1 0x4 PUSH2 0x6B9 JUMP JUMPDEST PUSH2 0x42B JUMP JUMPDEST PUSH1 0x40 MLOAD PUSH2 0xB1 SWAP4 SWAP3 SWAP2 SWAP1 PUSH2 0x900 JUMP JUMPDEST PUSH1 0x40 MLOAD DUP1 SWAP2 SUB SWAP1 RETURN JUMPDEST PUSH1 0x2 SLOAD PUSH2 0xCD SWAP1 PUSH1 0x1 PUSH1 0x1 PUSH1 0xA0 SHL SUB AND DUP2 JUMP JUMPDEST PUSH1 0x40 MLOAD PUSH1 0x1 PUSH1 0x1 PUSH1 0xA0 SHL SUB SWAP1 SWAP2 AND DUP2 MSTORE PUSH1 0x20 ADD PUSH2 0xB1 JUMP JUMPDEST PUSH2 0xED PUSH2 0x4ED JUMP JUMPDEST PUSH1 0x40 MLOAD PUSH2 0xB1 SWAP2 SWAP1 PUSH2 0x86D JUMP JUMPDEST PUSH2 0x11D PUSH2 0x108 CALLDATASIZE PUSH1 0x4 PUSH2 0x68B JUMP JUMPDEST PUSH1 0x1 PUSH1 0x20 MSTORE PUSH1 0x0 SWAP1 DUP2 MSTORE PUSH1 0x40 SWAP1 KECCAK256 SLOAD PUSH1 0xFF AND DUP2 JUMP JUMPDEST PUSH1 0x40 MLOAD SWAP1 ISZERO ISZERO DUP2 MSTORE PUSH1 0x20 ADD PUSH2 0xB1 JUMP JUMPDEST PUSH1 0x2 SLOAD PUSH1 0x1 PUSH1 0x1 PUSH1 0xA0 SHL SUB AND CALLER EQ PUSH2 0x19B JUMPI PUSH1 0x40 MLOAD PUSH3 0x461BCD PUSH1 0xE5 SHL DUP2 MSTORE PUSH1 0x20 PUSH1 0x4 DUP3 ADD MSTORE PUSH1 0x26 PUSH1 0x24 DUP3 ADD MSTORE PUSH32 0x4F6E6C7920746865206F776E65722063616E20706572666F726D207468697320 PUSH1 0x44 DUP3 ADD MSTORE PUSH6 0x30B1BA34B7B7 PUSH1 0xD1 SHL PUSH1 0x64 DUP3 ADD MSTORE PUSH1 0x84 ADD JUMPDEST PUSH1 0x40 MLOAD DUP1 SWAP2 SUB SWAP1 REVERT JUMPDEST PUSH1 0x40 DUP1 MLOAD PUSH1 0x60 DUP2 ADD DUP3 MSTORE DUP3 DUP2 MSTORE PUSH1 0x20 DUP1 DUP3 ADD DUP6 SWAP1 MSTORE PUSH1 0x0 SWAP3 DUP3 ADD DUP4 SWAP1 MSTORE DUP3 SLOAD PUSH1 0x1 DUP2 ADD DUP5 SSTORE SWAP3 DUP1 MSTORE DUP2 MLOAD DUP1 MLOAD SWAP3 SWAP4 PUSH1 0x3 MUL PUSH32 0x290DECD9548B62A8D60345A988386FC84BA6BC95484008F6362F93160EF3E563 ADD SWAP3 PUSH2 0x1FC SWAP3 DUP5 SWAP3 ADD SWAP1 PUSH2 0x5F2 JUMP JUMPDEST POP PUSH1 0x20 DUP3 ADD MLOAD DUP2 PUSH1 0x1 ADD SSTORE PUSH1 0x40 DUP3 ADD MLOAD DUP2 PUSH1 0x2 ADD SSTORE POP POP POP POP JUMP JUMPDEST CALLER PUSH1 0x0 SWAP1 DUP2 MSTORE PUSH1 0x1 PUSH1 0x20 MSTORE PUSH1 0x40 SWAP1 KECCAK256 SLOAD PUSH1 0xFF AND ISZERO PUSH2 0x277 JUMPI PUSH1 0x40 MLOAD PUSH3 0x461BCD PUSH1 0xE5 SHL DUP2 MSTORE PUSH1 0x20 PUSH1 0x4 DUP3 ADD MSTORE PUSH1 0x17 PUSH1 0x24 DUP3 ADD MSTORE PUSH32 0x596F75206861766520616C726561647920766F7465642E000000000000000000 PUSH1 0x44 DUP3 ADD MSTORE PUSH1 0x64 ADD PUSH2 0x192 JUMP JUMPDEST PUSH1 0x0 JUMPDEST PUSH1 0x0 SLOAD DUP2 LT ISZERO PUSH2 0x3C7 JUMPI DUP2 DUP1 MLOAD SWAP1 PUSH1 0x20 ADD KECCAK256 PUSH1 0x0 DUP3 DUP2 SLOAD DUP2 LT PUSH2 0x2AD JUMPI PUSH4 0x4E487B71 PUSH1 0xE0 SHL PUSH1 0x0 MSTORE PUSH1 0x32 PUSH1 0x4 MSTORE PUSH1 0x24 PUSH1 0x0 REVERT JUMPDEST SWAP1 PUSH1 0x0 MSTORE PUSH1 0x20 PUSH1 0x0 KECCAK256 SWAP1 PUSH1 0x3 MUL ADD PUSH1 0x0 ADD PUSH1 0x40 MLOAD PUSH2 0x2CB SWAP2 SWAP1 PUSH2 0x7D2 JUMP JUMPDEST PUSH1 0x40 MLOAD DUP1 SWAP2 SUB SWAP1 KECCAK256 EQ DUP1 ISZERO PUSH2 0x311 JUMPI POP DUP3 PUSH1 0x0 DUP3 DUP2 SLOAD DUP2 LT PUSH2 0x2FD JUMPI PUSH4 0x4E487B71 PUSH1 0xE0 SHL PUSH1 0x0 MSTORE PUSH1 0x32 PUSH1 0x4 MSTORE PUSH1 0x24 PUSH1 0x0 REVERT JUMPDEST SWAP1 PUSH1 0x0 MSTORE PUSH1 0x20 PUSH1 0x0 KECCAK256 SWAP1 PUSH1 0x3 MUL ADD PUSH1 0x1 ADD SLOAD EQ JUMPDEST ISZERO PUSH2 0x3B5 JUMPI PUSH1 0x0 DUP2 DUP2 SLOAD DUP2 LT PUSH2 0x337 JUMPI PUSH4 0x4E487B71 PUSH1 0xE0 SHL PUSH1 0x0 MSTORE PUSH1 0x32 PUSH1 0x4 MSTORE PUSH1 0x24 PUSH1 0x0 REVERT JUMPDEST PUSH1 0x0 SWAP2 DUP3 MSTORE PUSH1 0x20 DUP3 KECCAK256 PUSH1 0x2 PUSH1 0x3 SWAP1 SWAP3 MUL ADD ADD DUP1 SLOAD SWAP2 PUSH2 0x355 DUP4 PUSH2 0x960 JUMP JUMPDEST SWAP1 SWAP2 SSTORE POP POP CALLER PUSH1 0x0 SWAP1 DUP2 MSTORE PUSH1 0x1 PUSH1 0x20 DUP2 SWAP1 MSTORE PUSH1 0x40 SWAP2 DUP3 SWAP1 KECCAK256 DUP1 SLOAD PUSH1 0xFF NOT AND SWAP1 SWAP2 OR SWAP1 SSTORE MLOAD DUP4 SWAP1 PUSH32 0xB0FA784F6C9CE4625E023C4CB4B392B871163AF5C58729E7A7B8F7CDAFF54F17 SWAP1 PUSH2 0x3A8 SWAP1 DUP6 SWAP1 PUSH2 0x8ED JUMP JUMPDEST PUSH1 0x40 MLOAD DUP1 SWAP2 SUB SWAP1 LOG2 POP POP POP JUMP JUMPDEST DUP1 PUSH2 0x3BF DUP2 PUSH2 0x960 JUMP JUMPDEST SWAP2 POP POP PUSH2 0x27A JUMP JUMPDEST POP PUSH1 0x40 MLOAD PUSH3 0x461BCD PUSH1 0xE5 SHL DUP2 MSTORE PUSH1 0x20 PUSH1 0x4 DUP3 ADD MSTORE PUSH1 0x32 PUSH1 0x24 DUP3 ADD MSTORE PUSH32 0x43616E646964617465206E6F7420666F756E6420666F72207468652067697665 PUSH1 0x44 DUP3 ADD MSTORE PUSH18 0x37103234B9BA3934B1BA1030B7321024A217 PUSH1 0x71 SHL PUSH1 0x64 DUP3 ADD MSTORE PUSH1 0x84 ADD PUSH2 0x192 JUMP JUMPDEST PUSH1 0x0 DUP2 DUP2 SLOAD DUP2 LT PUSH2 0x43B JUMPI PUSH1 0x0 DUP1 REVERT JUMPDEST SWAP1 PUSH1 0x0 MSTORE PUSH1 0x20 PUSH1 0x0 KECCAK256 SWAP1 PUSH1 0x3 MUL ADD PUSH1 0x0 SWAP2 POP SWAP1 POP DUP1 PUSH1 0x0 ADD DUP1 SLOAD PUSH2 0x45E SWAP1 PUSH2 0x925 JUMP JUMPDEST DUP1 PUSH1 0x1F ADD PUSH1 0x20 DUP1 SWAP2 DIV MUL PUSH1 0x20 ADD PUSH1 0x40 MLOAD SWAP1 DUP2 ADD PUSH1 0x40 MSTORE DUP1 SWAP3 SWAP2 SWAP1 DUP2 DUP2 MSTORE PUSH1 0x20 ADD DUP3 DUP1 SLOAD PUSH2 0x48A SWAP1 PUSH2 0x925 JUMP JUMPDEST DUP1 ISZERO PUSH2 0x4D7 JUMPI DUP1 PUSH1 0x1F LT PUSH2 0x4AC JUMPI PUSH2 0x100 DUP1 DUP4 SLOAD DIV MUL DUP4 MSTORE SWAP2 PUSH1 0x20 ADD SWAP2 PUSH2 0x4D7 JUMP JUMPDEST DUP3 ADD SWAP2 SWAP1 PUSH1 0x0 MSTORE PUSH1 0x20 PUSH1 0x0 KECCAK256 SWAP1 JUMPDEST DUP2 SLOAD DUP2 MSTORE SWAP1 PUSH1 0x1 ADD SWAP1 PUSH1 0x20 ADD DUP1 DUP4 GT PUSH2 0x4BA JUMPI DUP3 SWAP1 SUB PUSH1 0x1F AND DUP3 ADD SWAP2 JUMPDEST POP POP POP POP POP SWAP1 DUP1 PUSH1 0x1 ADD SLOAD SWAP1 DUP1 PUSH1 0x2 ADD SLOAD SWAP1 POP DUP4 JUMP JUMPDEST PUSH1 0x60 PUSH1 0x0 DUP1 SLOAD DUP1 PUSH1 0x20 MUL PUSH1 0x20 ADD PUSH1 0x40 MLOAD SWAP1 DUP2 ADD PUSH1 0x40 MSTORE DUP1 SWAP3 SWAP2 SWAP1 DUP2 DUP2 MSTORE PUSH1 0x20 ADD PUSH1 0x0 SWAP1 JUMPDEST DUP3 DUP3 LT ISZERO PUSH2 0x5E9 JUMPI DUP4 DUP3 SWAP1 PUSH1 0x0 MSTORE PUSH1 0x20 PUSH1 0x0 KECCAK256 SWAP1 PUSH1 0x3 MUL ADD PUSH1 0x40 MLOAD DUP1 PUSH1 0x60 ADD PUSH1 0x40 MSTORE SWAP1 DUP2 PUSH1 0x0 DUP3 ADD DUP1 SLOAD PUSH2 0x544 SWAP1 PUSH2 0x925 JUMP JUMPDEST DUP1 PUSH1 0x1F ADD PUSH1 0x20 DUP1 SWAP2 DIV MUL PUSH1 0x20 ADD PUSH1 0x40 MLOAD SWAP1 DUP2 ADD PUSH1 0x40 MSTORE DUP1 SWAP3 SWAP2 SWAP1 DUP2 DUP2 MSTORE PUSH1 0x20 ADD DUP3 DUP1 SLOAD PUSH2 0x570 SWAP1 PUSH2 0x925 JUMP JUMPDEST DUP1 ISZERO PUSH2 0x5BD JUMPI DUP1 PUSH1 0x1F LT PUSH2 0x592 JUMPI PUSH2 0x100 DUP1 DUP4 SLOAD DIV MUL DUP4 MSTORE SWAP2 PUSH1 0x20 ADD SWAP2 PUSH2 0x5BD JUMP JUMPDEST DUP3 ADD SWAP2 SWAP1 PUSH1 0x0 MSTORE PUSH1 0x20 PUSH1 0x0 KECCAK256 SWAP1 JUMPDEST DUP2 SLOAD DUP2 MSTORE SWAP1 PUSH1 0x1 ADD SWAP1 PUSH1 0x20 ADD DUP1 DUP4 GT PUSH2 0x5A0 JUMPI DUP3 SWAP1 SUB PUSH1 0x1F AND DUP3 ADD SWAP2 JUMPDEST POP POP POP POP POP DUP2 MSTORE PUSH1 0x20 ADD PUSH1 0x1 DUP3 ADD SLOAD DUP2 MSTORE PUSH1 0x20 ADD PUSH1 0x2 DUP3 ADD SLOAD DUP2 MSTORE POP POP DUP2 MSTORE PUSH1 0x20 ADD SWAP1 PUSH1 0x1 ADD SWAP1 PUSH2 0x511 JUMP JUMPDEST POP POP POP POP SWAP1 POP SWAP1 JUMP JUMPDEST DUP3 DUP1 SLOAD PUSH2 0x5FE SWAP1 PUSH2 0x925 JUMP JUMPDEST SWAP1 PUSH1 0x0 MSTORE PUSH1 0x20 PUSH1 0x0 KECCAK256 SWAP1 PUSH1 0x1F ADD PUSH1 0x20 SWAP1 DIV DUP2 ADD SWAP3 DUP3 PUSH2 0x620 JUMPI PUSH1 0x0 DUP6 SSTORE PUSH2 0x666 JUMP JUMPDEST DUP3 PUSH1 0x1F LT PUSH2 0x639 JUMPI DUP1 MLOAD PUSH1 0xFF NOT AND DUP4 DUP1 ADD OR DUP6 SSTORE PUSH2 0x666 JUMP JUMPDEST DUP3 DUP1 ADD PUSH1 0x1 ADD DUP6 SSTORE DUP3 ISZERO PUSH2 0x666 JUMPI SWAP2 DUP3 ADD JUMPDEST DUP3 DUP2 GT ISZERO PUSH2 0x666 JUMPI DUP3 MLOAD DUP3 SSTORE SWAP2 PUSH1 0x20 ADD SWAP2 SWAP1 PUSH1 0x1 ADD SWAP1 PUSH2 0x64B JUMP JUMPDEST POP PUSH2 0x672 SWAP3 SWAP2 POP PUSH2 0x676 JUMP JUMPDEST POP SWAP1 JUMP JUMPDEST JUMPDEST DUP1 DUP3 GT ISZERO PUSH2 0x672 JUMPI PUSH1 0x0 DUP2 SSTORE PUSH1 0x1 ADD PUSH2 0x677 JUMP JUMPDEST PUSH1 0x0 PUSH1 0x20 DUP3 DUP5 SUB SLT ISZERO PUSH2 0x69C JUMPI DUP1 DUP2 REVERT JUMPDEST DUP2 CALLDATALOAD PUSH1 0x1 PUSH1 0x1 PUSH1 0xA0 SHL SUB DUP2 AND DUP2 EQ PUSH2 0x6B2 JUMPI DUP2 DUP3 REVERT JUMPDEST SWAP4 SWAP3 POP POP POP JUMP JUMPDEST PUSH1 0x0 PUSH1 0x20 DUP3 DUP5 SUB SLT ISZERO PUSH2 0x6CA JUMPI DUP1 DUP2 REVERT JUMPDEST POP CALLDATALOAD SWAP2 SWAP1 POP JUMP JUMPDEST PUSH1 0x0 DUP1 PUSH1 0x40 DUP4 DUP6 SUB SLT ISZERO PUSH2 0x6E3 JUMPI DUP1 DUP2 REVERT JUMPDEST DUP3 CALLDATALOAD SWAP2 POP PUSH1 0x20 DUP4 ADD CALLDATALOAD PUSH8 0xFFFFFFFFFFFFFFFF DUP1 DUP3 GT ISZERO PUSH2 0x701 JUMPI DUP3 DUP4 REVERT JUMPDEST DUP2 DUP6 ADD SWAP2 POP DUP6 PUSH1 0x1F DUP4 ADD SLT PUSH2 0x714 JUMPI DUP3 DUP4 REVERT JUMPDEST DUP2 CALLDATALOAD DUP2 DUP2 GT ISZERO PUSH2 0x726 JUMPI PUSH2 0x726 PUSH2 0x987 JUMP JUMPDEST PUSH1 0x40 MLOAD PUSH1 0x1F DUP3 ADD PUSH1 0x1F NOT SWAP1 DUP2 AND PUSH1 0x3F ADD AND DUP2 ADD SWAP1 DUP4 DUP3 GT DUP2 DUP4 LT OR ISZERO PUSH2 0x74E JUMPI PUSH2 0x74E PUSH2 0x987 JUMP JUMPDEST DUP2 PUSH1 0x40 MSTORE DUP3 DUP2 MSTORE DUP9 PUSH1 0x20 DUP5 DUP8 ADD ADD GT ISZERO PUSH2 0x766 JUMPI DUP6 DUP7 REVERT JUMPDEST DUP3 PUSH1 0x20 DUP7 ADD PUSH1 0x20 DUP4 ADD CALLDATACOPY DUP6 PUSH1 0x20 DUP5 DUP4 ADD ADD MSTORE DUP1 SWAP6 POP POP POP POP POP POP SWAP3 POP SWAP3 SWAP1 POP JUMP JUMPDEST PUSH1 0x0 DUP2 MLOAD DUP1 DUP5 MSTORE DUP2 JUMPDEST DUP2 DUP2 LT ISZERO PUSH2 0x7AC JUMPI PUSH1 0x20 DUP2 DUP6 ADD DUP2 ADD MLOAD DUP7 DUP4 ADD DUP3 ADD MSTORE ADD PUSH2 0x790 JUMP JUMPDEST DUP2 DUP2 GT ISZERO PUSH2 0x7BD JUMPI DUP3 PUSH1 0x20 DUP4 DUP8 ADD ADD MSTORE JUMPDEST POP PUSH1 0x1F ADD PUSH1 0x1F NOT AND SWAP3 SWAP1 SWAP3 ADD PUSH1 0x20 ADD SWAP3 SWAP2 POP POP JUMP JUMPDEST PUSH1 0x0 DUP1 DUP4 SLOAD DUP3 PUSH1 0x1 DUP3 DUP2 SHR SWAP2 POP DUP1 DUP4 AND DUP1 PUSH2 0x7EE JUMPI PUSH1 0x7F DUP4 AND SWAP3 POP JUMPDEST PUSH1 0x20 DUP1 DUP5 LT DUP3 EQ ISZERO PUSH2 0x80E JUMPI PUSH4 0x4E487B71 PUSH1 0xE0 SHL DUP8 MSTORE PUSH1 0x22 PUSH1 0x4 MSTORE PUSH1 0x24 DUP8 REVERT JUMPDEST DUP2 DUP1 ISZERO PUSH2 0x822 JUMPI PUSH1 0x1 DUP2 EQ PUSH2 0x833 JUMPI PUSH2 0x85F JUMP JUMPDEST PUSH1 0xFF NOT DUP7 AND DUP10 MSTORE DUP5 DUP10 ADD SWAP7 POP PUSH2 0x85F JUMP JUMPDEST PUSH1 0x0 DUP11 DUP2 MSTORE PUSH1 0x20 SWAP1 KECCAK256 DUP9 JUMPDEST DUP7 DUP2 LT ISZERO PUSH2 0x857 JUMPI DUP2 SLOAD DUP12 DUP3 ADD MSTORE SWAP1 DUP6 ADD SWAP1 DUP4 ADD PUSH2 0x83E JUMP JUMPDEST POP POP DUP5 DUP10 ADD SWAP7 POP JUMPDEST POP SWAP5 SWAP9 SWAP8 POP POP POP POP POP POP POP POP JUMP JUMPDEST PUSH1 0x0 PUSH1 0x20 DUP1 DUP4 ADD DUP2 DUP5 MSTORE DUP1 DUP6 MLOAD DUP1 DUP4 MSTORE PUSH1 0x40 SWAP3 POP DUP3 DUP7 ADD SWAP2 POP DUP3 DUP2 PUSH1 0x5 SHL DUP8 ADD ADD DUP5 DUP9 ADD DUP7 JUMPDEST DUP4 DUP2 LT ISZERO PUSH2 0x8DF JUMPI PUSH1 0x3F NOT DUP10 DUP5 SUB ADD DUP6 MSTORE DUP2 MLOAD PUSH1 0x60 DUP2 MLOAD DUP2 DUP7 MSTORE PUSH2 0x8B9 DUP3 DUP8 ADD DUP3 PUSH2 0x787 JUMP JUMPDEST DUP4 DUP12 ADD MLOAD DUP8 DUP13 ADD MSTORE SWAP3 DUP10 ADD MLOAD SWAP6 DUP10 ADD SWAP6 SWAP1 SWAP6 MSTORE POP SWAP5 DUP8 ADD SWAP5 SWAP3 POP SWAP1 DUP7 ADD SWAP1 PUSH1 0x1 ADD PUSH2 0x893 JUMP JUMPDEST POP SWAP1 SWAP9 SWAP8 POP POP POP POP POP POP POP POP JUMP JUMPDEST PUSH1 0x20 DUP2 MSTORE PUSH1 0x0 PUSH2 0x6B2 PUSH1 0x20 DUP4 ADD DUP5 PUSH2 0x787 JUMP JUMPDEST PUSH1 0x60 DUP2 MSTORE PUSH1 0x0 PUSH2 0x913 PUSH1 0x60 DUP4 ADD DUP7 PUSH2 0x787 JUMP JUMPDEST PUSH1 0x20 DUP4 ADD SWAP5 SWAP1 SWAP5 MSTORE POP PUSH1 0x40 ADD MSTORE SWAP2 SWAP1 POP JUMP JUMPDEST PUSH1 0x1 DUP2 DUP2 SHR SWAP1 DUP3 AND DUP1 PUSH2 0x939 JUMPI PUSH1 0x7F DUP3 AND SWAP2 POP JUMPDEST PUSH1 0x20 DUP3 LT DUP2 EQ ISZERO PUSH2 0x95A JUMPI PUSH4 0x4E487B71 PUSH1 0xE0 SHL PUSH1 0x0 MSTORE PUSH1 0x22 PUSH1 0x4 MSTORE PUSH1 0x24 PUSH1 0x0 REVERT JUMPDEST POP SWAP2 SWAP1 POP JUMP JUMPDEST PUSH1 0x0 PUSH1 0x0 NOT DUP3 EQ ISZERO PUSH2 0x980 JUMPI PUSH4 0x4E487B71 PUSH1 0xE0 SHL DUP2 MSTORE PUSH1 0x11 PUSH1 0x4 MSTORE PUSH1 0x24 DUP2 REVERT JUMPDEST POP PUSH1 0x1 ADD SWAP1 JUMP JUMPDEST PUSH4 0x4E487B71 PUSH1 0xE0 SHL PUSH1 0x0 MSTORE PUSH1 0x41 PUSH1 0x4 MSTORE PUSH1 0x24 PUSH1 0x0 REVERT INVALID LOG2 PUSH5 0x6970667358 0x22 SLT KECCAK256 CREATE2 PUSH25 0xF9C088B26CFCCF9A8E1C30E3815A459F08EEF4A830723168FD SWAP15 0x24 EXP 0xE3 0xF PUSH5 0x736F6C6343 STOP ADDMOD DIV STOP CALLER 0x29 0xD 0xEC 0xD9 SLOAD DUP12 PUSH3 0xA8D603 GASLIMIT 0xA9 DUP9 CODESIZE PUSH16 0xC84BA6BC95484008F6362F93160EF3E5 PUSH4 0x0 "},"methodIdentifiers":{"addCandidate(uint256,string)":"1750a3d0","candidates(uint256)":"3477ee2e","getAllVotesOfCandidates()":"90a9ab90","owner()":"8da5cb5b","vote(uint256,string)":"24108475","voters(address)":"a3ec138d"}}}}}