{
  "_format": "hh-sol-artifact-1",
  "contractName": "Voting",
  "sourceName": "contracts/Voting.sol",
  "abi": [
    {
      "inputs": [],
      "stateMutability": "nonpayable",
      "type": "constructor"
    },
    {
      "anonymous": false,
      "inputs": [
        {
          "indexed": true,
          "internalType": "uint256",
          "name": "candidateId",
          "type": "uint256"
        },
        {
          "indexed": false,
          "internalType": "string",
          "name": "district",
          "type": "string"
        }
      ],
      "name": "Voted",
      "type": "event"
    },
    {
      "inputs": [
        {
          "internalType": "uint256",
          "name": "_candidateId",
          "type": "uint256"
        },
        {
          "internalType": "string",
          "name": "_district",
          "type": "string"
        }
      ],
      "name": "addCandidate",
      "outputs": [],
      "stateMutability": "nonpayable",
      "type": "function"
    },
    {
      "inputs": [
        {
          "internalType": "uint256",
          "name": "",
          "type": "uint256"
        }
      ],
      "name": "candidates",
      "outputs": [
        {
          "internalType": "string",
          "name": "district",
          "type": "string"
        },
        {
          "internalType": "uint256",
          "name": "candidateId",
          "type": "uint256"
        },
        {
          "internalType": "uint256",
          "name": "voteCount",
          "type": "uint256"
        }
      ],
      "stateMutability": "view",
      "type": "function"
    },
    {
      "inputs": [],
      "name": "getAllVotesOfCandidates",
      "outputs": [
        {
          "components": [
            {
              "internalType": "string",
              "name": "district",
              "type": "string"
            },
            {
              "internalType": "uint256",
              "name": "candidateId",
              "type": "uint256"
            },
            {
              "internalType": "uint256",
              "name": "voteCount",
              "type": "uint256"
            }
          ],
          "internalType": "struct Voting.Candidate[]",
          "name": "",
          "type": "tuple[]"
        }
      ],
      "stateMutability": "view",
      "type": "function"
    },
    {
      "inputs": [],
      "name": "owner",
      "outputs": [
        {
          "internalType": "address",
          "name": "",
          "type": "address"
        }
      ],
      "stateMutability": "view",
      "type": "function"
    },
    {
      "inputs": [
        {
          "internalType": "uint256",
          "name": "_candidateId",
          "type": "uint256"
        },
        {
          "internalType": "string",
          "name": "_district",
          "type": "string"
        }
      ],
      "name": "vote",
      "outputs": [],
      "stateMutability": "nonpayable",
      "type": "function"
    },
    {
      "inputs": [
        {
          "internalType": "address",
          "name": "",
          "type": "address"
        }
      ],
      "name": "voters",
      "outputs": [
        {
          "internalType": "bool",
          "name": "",
          "type": "bool"
        }
      ],
      "stateMutability": "view",
      "type": "function"
    }
  ],
  "bytecode": "0x60806040523480156200001157600080fd5b50600280546001600160a01b031916331790556200002e62000034565b620005cd565b6002546001600160a01b03163314620000a25760405162461bcd60e51b815260206004820152602660248201527f4f6e6c7920746865206f776e65722063616e20706572666f726d20746869732060448201526530b1ba34b7b760d11b606482015260840160405180910390fd5b6040805160a081018252600c606082019081526b54686f6f7468756b6b75646960a01b6080830152815260016020808301829052600093830184905283549182018455928052815180519293600390920260008051602062000fb08339815191520192620001149284920190620004ea565b50602082810151600180840191909155604093840151600293840155835160a081018552600c606082019081526b54686f6f7468756b6b75646960a01b608083015281528083019390935260009383018490528354908101845592805281518051929360030260008051602062000fb083398151915201926200019b9284920190620004ea565b50602082810151600180840191909155604093840151600290930192909255825160a081018452600c606082019081526b54686f6f7468756b6b75646960a01b6080830152815260038183018190526000948201859052845493840185559380528051805191949390930260008051602062000fb0833981519152019262000228928492910190620004ea565b50602082810151600180840191909155604093840151600290930192909255825160a081018452600c606082019081526b54686f6f7468756b6b75646960a01b6080830152815260048183015260009381018490528354928301845592805282518051600390930260008051602062000fb08339815191520192620002b19284920190620004ea565b50602082810151600180840191909155604093840151600290930192909255825160a081018452600b606082019081526a546972756e656c76656c6960a81b6080830152815260058183015260009381018490528354928301845592805282518051600390930260008051602062000fb08339815191520192620003399284920190620004ea565b50602082810151600180840191909155604093840151600290930192909255825160a081018452600b606082019081526a546972756e656c76656c6960a81b6080830152815260068183015260009381018490528354928301845592805282518051600390930260008051602062000fb08339815191520192620003c19284920190620004ea565b50602082810151600180840191909155604093840151600290930192909255825160a081018452600b606082019081526a546972756e656c76656c6960a81b6080830152815260078183015260009381018490528354928301845592805282518051600390930260008051602062000fb08339815191520192620004499284920190620004ea565b50602082810151600180840191909155604093840151600290930192909255825160a081018452600b606082019081526a546972756e656c76656c6960a81b6080830152815260088183015260009381018490528354928301845592805282518051600390930260008051602062000fb08339815191520192620004d19284920190620004ea565b5060208201518160010155604082015181600201555050565b828054620004f89062000590565b90600052602060002090601f0160209004810192826200051c576000855562000567565b82601f106200053757805160ff191683800117855562000567565b8280016001018555821562000567579182015b82811115620005675782518255916020019190600101906200054a565b506200057592915062000579565b5090565b5b808211156200057557600081556001016200057a565b600181811c90821680620005a557607f821691505b60208210811415620005c757634e487b7160e01b600052602260045260246000fd5b50919050565b6109d380620005dd6000396000f3fe608060405234801561001057600080fd5b50600436106100625760003560e01c80631750a3d014610067578063241084751461007c5780633477ee2e1461008f5780638da5cb5b146100ba57806390a9ab90146100e5578063a3ec138d146100fa575b600080fd5b61007a6100753660046106d1565b61012d565b005b61007a61008a3660046106d1565b610217565b6100a261009d3660046106b9565b61042b565b6040516100b193929190610900565b60405180910390f35b6002546100cd906001600160a01b031681565b6040516001600160a01b0390911681526020016100b1565b6100ed6104ed565b6040516100b1919061086d565b61011d61010836600461068b565b60016020526000908152604090205460ff1681565b60405190151581526020016100b1565b6002546001600160a01b0316331461019b5760405162461bcd60e51b815260206004820152602660248201527f4f6e6c7920746865206f776e65722063616e20706572666f726d20746869732060448201526530b1ba34b7b760d11b60648201526084015b60405180910390fd5b604080516060810182528281526020808201859052600092820183905282546001810184559280528151805192936003027f290decd9548b62a8d60345a988386fc84ba6bc95484008f6362f93160ef3e56301926101fc92849201906105f2565b50602082015181600101556040820151816002015550505050565b3360009081526001602052604090205460ff16156102775760405162461bcd60e51b815260206004820152601760248201527f596f75206861766520616c726561647920766f7465642e0000000000000000006044820152606401610192565b60005b6000548110156103c7578180519060200120600082815481106102ad57634e487b7160e01b600052603260045260246000fd5b90600052602060002090600302016000016040516102cb91906107d2565b6040518091039020148015610311575082600082815481106102fd57634e487b7160e01b600052603260045260246000fd5b906000526020600020906003020160010154145b156103b5576000818154811061033757634e487b7160e01b600052603260045260246000fd5b60009182526020822060026003909202010180549161035583610960565b909155505033600090815260016020819052604091829020805460ff191690911790555183907fb0fa784f6c9ce4625e023c4cb4b392b871163af5c58729e7a7b8f7cdaff54f17906103a89085906108ed565b60405180910390a2505050565b806103bf81610960565b91505061027a565b5060405162461bcd60e51b815260206004820152603260248201527f43616e646964617465206e6f7420666f756e6420666f7220746865206769766560448201527137103234b9ba3934b1ba1030b7321024a21760711b6064820152608401610192565b6000818154811061043b57600080fd5b906000526020600020906003020160009150905080600001805461045e90610925565b80601f016020809104026020016040519081016040528092919081815260200182805461048a90610925565b80156104d75780601f106104ac576101008083540402835291602001916104d7565b820191906000526020600020905b8154815290600101906020018083116104ba57829003601f168201915b5050505050908060010154908060020154905083565b60606000805480602002602001604051908101604052809291908181526020016000905b828210156105e9578382906000526020600020906003020160405180606001604052908160008201805461054490610925565b80601f016020809104026020016040519081016040528092919081815260200182805461057090610925565b80156105bd5780601f10610592576101008083540402835291602001916105bd565b820191906000526020600020905b8154815290600101906020018083116105a057829003601f168201915b505050505081526020016001820154815260200160028201548152505081526020019060010190610511565b50505050905090565b8280546105fe90610925565b90600052602060002090601f0160209004810192826106205760008555610666565b82601f1061063957805160ff1916838001178555610666565b82800160010185558215610666579182015b8281111561066657825182559160200191906001019061064b565b50610672929150610676565b5090565b5b808211156106725760008155600101610677565b60006020828403121561069c578081fd5b81356001600160a01b03811681146106b2578182fd5b9392505050565b6000602082840312156106ca578081fd5b5035919050565b600080604083850312156106e3578081fd5b82359150602083013567ffffffffffffffff80821115610701578283fd5b818501915085601f830112610714578283fd5b81358181111561072657610726610987565b604051601f8201601f19908116603f0116810190838211818310171561074e5761074e610987565b81604052828152886020848701011115610766578586fd5b82602086016020830137856020848301015280955050505050509250929050565b60008151808452815b818110156107ac57602081850181015186830182015201610790565b818111156107bd5782602083870101525b50601f01601f19169290920160200192915050565b600080835482600182811c9150808316806107ee57607f831692505b602080841082141561080e57634e487b7160e01b87526022600452602487fd5b81801561082257600181146108335761085f565b60ff1986168952848901965061085f565b60008a815260209020885b868110156108575781548b82015290850190830161083e565b505084890196505b509498975050505050505050565b60006020808301818452808551808352604092508286019150828160051b870101848801865b838110156108df57603f198984030185528151606081518186526108b982870182610787565b838b0151878c015292890151958901959095525094870194925090860190600101610893565b509098975050505050505050565b6020815260006106b26020830184610787565b6060815260006109136060830186610787565b60208301949094525060400152919050565b600181811c9082168061093957607f821691505b6020821081141561095a57634e487b7160e01b600052602260045260246000fd5b50919050565b600060001982141561098057634e487b7160e01b81526011600452602481fd5b5060010190565b634e487b7160e01b600052604160045260246000fdfea2646970667358221220f578f9c088b26cfccf9a8e1c30e3815a459f08eef4a830723168fd9e240ae30f64736f6c63430008040033290decd9548b62a8d60345a988386fc84ba6bc95484008f6362f93160ef3e563",
  "linkReferences": {},
  "deployedLinkReferences": {}
}