{
  "_format": "hh-sol-artifact-1",
  "contractName": "Voting",
  "sourceName": "contracts/Voting.sol",
  "abi": [
    {
      "inputs": [],
      "stateMutability": "nonpayable",
      "type": "constructor"
    },
    {
      "anonymous": false,
      "inputs": [
        {
          "indexed": true,
          "internalType": "uint256",
          "name": "candidateId",
          "type": "uint256"
        },
        {
          "indexed": false,
          "internalType": "string",
          "name": "district",
          "type": "string"
        }
      ],
      "name": "Voted",
      "type": "event"
    },
    {
      "inputs": [
        {
          "internalType": "uint256",
          "name": "_candidateId",
          "type": "uint256"
        },
        {
          "internalType": "string",
          "name": "_district",
          "type": "string"
        },
        {
          "internalType": "string",
          "name": "_candidateName",
          "type": "string"
        }
      ],
      "name": "addCandidate",
      "outputs": [],
      "stateMutability": "nonpayable",
      "type": "function"
    },
    {
      "inputs": [
        {
          "internalType": "uint256",
          "name": "",
          "type": "uint256"
        }
      ],
      "name": "candidates",
      "outputs": [
        {
          "internalType": "string",
          "name": "district",
          "type": "string"
        },
        {
          "internalType": "string",
          "name": "candidateName",
          "type": "string"
        },
        {
          "internalType": "uint256",
          "name": "candidateId",
          "type": "uint256"
        },
        {
          "internalType": "uint256",
          "name": "voteCount",
          "type": "uint256"
        }
      ],
      "stateMutability": "view",
      "type": "function"
    },
    {
      "inputs": [],
      "name": "getAllVotesOfCandidates",
      "outputs": [
        {
          "components": [
            {
              "internalType": "string",
              "name": "district",
              "type": "string"
            },
            {
              "internalType": "string",
              "name": "candidateName",
              "type": "string"
            },
            {
              "internalType": "uint256",
              "name": "candidateId",
              "type": "uint256"
            },
            {
              "internalType": "uint256",
              "name": "voteCount",
              "type": "uint256"
            }
          ],
          "internalType": "struct Voting.Candidate[]",
          "name": "",
          "type": "tuple[]"
        }
      ],
      "stateMutability": "view",
      "type": "function"
    },
    {
      "inputs": [],
      "name": "owner",
      "outputs": [
        {
          "internalType": "address",
          "name": "",
          "type": "address"
        }
      ],
      "stateMutability": "view",
      "type": "function"
    },
    {
      "inputs": [
        {
          "internalType": "uint256",
          "name": "_candidateId",
          "type": "uint256"
        },
        {
          "internalType": "string",
          "name": "_district",
          "type": "string"
        }
      ],
      "name": "vote",
      "outputs": [],
      "stateMutability": "nonpayable",
      "type": "function"
    },
    {
      "inputs": [
        {
          "internalType": "address",
          "name": "",
          "type": "address"
        }
      ],
      "name": "voters",
      "outputs": [
        {
          "internalType": "bool",
          "name": "",
          "type": "bool"
        }
      ],
      "stateMutability": "view",
      "type": "function"
    }
  ],
  "bytecode": "0x60806040523480156200001157600080fd5b50600280546001600160a01b031916331790556200002e62000034565b6200080b565b6002546001600160a01b03163314620000a25760405162461bcd60e51b815260206004820152602660248201527f4f6e6c7920746865206f776e65722063616e20706572666f726d20746869732060448201526530b1ba34b7b760d11b606482015260840160405180910390fd5b6040805160c081018252600c608082018181526b54686f6f7468756b6b75646960a01b60a08401528252825180840184529081526b4d616e696b6b6172616a204160a01b602082810191909152808301919091526001928201839052600060608301819052805493840181558052815180519293600402600080516020620013e083398151915201926200013a928492019062000728565b50602082810151805162000155926001850192019062000728565b50604082810151600280840191909155606093840151600390930192909255805160c081018252600c608082019081526b54686f6f7468756b6b75646960a01b60a083015281528151808301835260118152705369766173616d792056656c756d616e6960781b602082810191909152808301919091529181019290925260009282018390528254600181018455928052815180519293600402600080516020620013e0833981519152019262000210928492019062000728565b5060208281015180516200022b926001850192019062000728565b506040828101516002830155606092830151600392830155805160c081018252600c608082019081526b54686f6f7468756b6b75646960a01b60a083015281528151808301835260098152684b616e696d6f7a686960b81b602082810191909152808301919091529181019290925260009282018390528254600181018455928052815180519293600402600080516020620013e08339815191520192620002d7928492019062000728565b506020828101518051620002f2926001850192019062000728565b506040828101516002830155606092830151600390920191909155805160c081018252600c608082019081526b54686f6f7468756b6b75646960a01b60a083015281528151808301835260128152712b34b530bcb0b9b2b2b630b710299722172960711b60208281019190915280830191909152600492820183905260009382018490528354600181018555938052815180519294909302600080516020620013e08339815191520192620003ae928492919091019062000728565b506020828101518051620003c9926001850192019062000728565b506040828101516002830155606092830151600390920191909155805160c081018252600b608082019081526a546972756e656c76656c6960a81b60a0830152815281518083018352600f81526e2130b630b9bab13930b6b0b734b0b760891b6020828101919091528083019190915260059282019290925260009281018390528254600181018455928052805180519193600402600080516020620013e08339815191520192620004819284929091019062000728565b5060208281015180516200049c926001850192019062000728565b506040828101516002830155606092830151600390920191909155805160c081018252600b608082019081526a546972756e656c76656c6960a81b60a0830152815281518083018352600c81526b4a616e73692052616e69204d60a01b6020828101919091528083019190915260069282019290925260009281018390528254600181018455928052805180519193600402600080516020620013e08339815191520192620005519284929091019062000728565b5060208281015180516200056c926001850192019062000728565b506040828101516002830155606092830151600390920191909155805160c081018252600b608082019081526a546972756e656c76656c6960a81b60a083015281528151808301835260118152702730b4b730b9102730b3b2b73a343930b760791b6020828101919091528083019190915260079282019290925260009281018390528254600181018455928052805180519193600402600080516020620013e08339815191520192620006269284929091019062000728565b50602082810151805162000641926001850192019062000728565b506040828101516002830155606092830151600390920191909155805160c081018252600b608082018181526a546972756e656c76656c6960a81b60a08401528252825180840184529081526a20ba3434b9b0bcb0b6902b60a91b6020828101919091528083019190915260089282019290925260009281018390528254600181018455928052805180519193600402600080516020620013e08339815191520192620006f49284929091019062000728565b5060208281015180516200070f926001850192019062000728565b5060408201518160020155606082015181600301555050565b8280546200073690620007ce565b90600052602060002090601f0160209004810192826200075a5760008555620007a5565b82601f106200077557805160ff1916838001178555620007a5565b82800160010185558215620007a5579182015b82811115620007a557825182559160200191906001019062000788565b50620007b3929150620007b7565b5090565b5b80821115620007b35760008155600101620007b8565b600181811c90821680620007e357607f821691505b602082108114156200080557634e487b7160e01b600052602260045260246000fd5b50919050565b610bc5806200081b6000396000f3fe608060405234801561001057600080fd5b50600436106100625760003560e01c806324108475146100675780633477ee2e1461007c5780638da5cb5b146100a857806390a9ab90146100d3578063a3ec138d146100e8578063e6c62efc1461011b575b600080fd5b61007a61007536600461089c565b61012e565b005b61008f61008a366004610884565b610347565b60405161009f9493929190610ade565b60405180910390f35b6002546100bb906001600160a01b031681565b6040516001600160a01b03909116815260200161009f565b6100db610497565b60405161009f9190610a31565b61010b6100f6366004610856565b60016020526000908152604090205460ff1681565b604051901515815260200161009f565b61007a6101293660046108e1565b61062e565b3360009081526001602052604090205460ff16156101935760405162461bcd60e51b815260206004820152601760248201527f596f75206861766520616c726561647920766f7465642e00000000000000000060448201526064015b60405180910390fd5b60005b6000548110156102e3578180519060200120600082815481106101c957634e487b7160e01b600052603260045260246000fd5b90600052602060002090600402016000016040516101e79190610996565b604051809103902014801561022d5750826000828154811061021957634e487b7160e01b600052603260045260246000fd5b906000526020600020906004020160020154145b156102d1576000818154811061025357634e487b7160e01b600052603260045260246000fd5b60009182526020822060036004909202010180549161027183610b52565b909155505033600090815260016020819052604091829020805460ff191690911790555183907fb0fa784f6c9ce4625e023c4cb4b392b871163af5c58729e7a7b8f7cdaff54f17906102c4908590610acb565b60405180910390a2505050565b806102db81610b52565b915050610196565b5060405162461bcd60e51b815260206004820152603260248201527f43616e646964617465206e6f7420666f756e6420666f7220746865206769766560448201527137103234b9ba3934b1ba1030b7321024a21760711b606482015260840161018a565b6000818154811061035757600080fd5b906000526020600020906004020160009150905080600001805461037a90610b17565b80601f01602080910402602001604051908101604052809291908181526020018280546103a690610b17565b80156103f35780601f106103c8576101008083540402835291602001916103f3565b820191906000526020600020905b8154815290600101906020018083116103d657829003601f168201915b50505050509080600101805461040890610b17565b80601f016020809104026020016040519081016040528092919081815260200182805461043490610b17565b80156104815780601f1061045657610100808354040283529160200191610481565b820191906000526020600020905b81548152906001019060200180831161046457829003601f168201915b5050505050908060020154908060030154905084565b60606000805480602002602001604051908101604052809291908181526020016000905b8282101561062557838290600052602060002090600402016040518060800160405290816000820180546104ee90610b17565b80601f016020809104026020016040519081016040528092919081815260200182805461051a90610b17565b80156105675780601f1061053c57610100808354040283529160200191610567565b820191906000526020600020905b81548152906001019060200180831161054a57829003601f168201915b5050505050815260200160018201805461058090610b17565b80601f01602080910402602001604051908101604052809291908181526020018280546105ac90610b17565b80156105f95780601f106105ce576101008083540402835291602001916105f9565b820191906000526020600020905b8154815290600101906020018083116105dc57829003601f168201915b5050505050815260200160028201548152602001600382015481525050815260200190600101906104bb565b50505050905090565b6002546001600160a01b031633146106975760405162461bcd60e51b815260206004820152602660248201527f4f6e6c7920746865206f776e65722063616e20706572666f726d20746869732060448201526530b1ba34b7b760d11b606482015260840161018a565b604080516080810182528381526020808201849052918101859052600060608201819052805460018101825590805281518051929360049092027f290decd9548b62a8d60345a988386fc84ba6bc95484008f6362f93160ef3e56301926107019284920190610736565b50602082810151805161071a9260018501920190610736565b5060408201518160020155606082015181600301555050505050565b82805461074290610b17565b90600052602060002090601f01602090048101928261076457600085556107aa565b82601f1061077d57805160ff19168380011785556107aa565b828001600101855582156107aa579182015b828111156107aa57825182559160200191906001019061078f565b506107b69291506107ba565b5090565b5b808211156107b657600081556001016107bb565b600082601f8301126107df578081fd5b813567ffffffffffffffff808211156107fa576107fa610b79565b604051601f8301601f19908116603f0116810190828211818310171561082257610822610b79565b8160405283815286602085880101111561083a578485fd5b8360208701602083013792830160200193909352509392505050565b600060208284031215610867578081fd5b81356001600160a01b038116811461087d578182fd5b9392505050565b600060208284031215610895578081fd5b5035919050565b600080604083850312156108ae578081fd5b82359150602083013567ffffffffffffffff8111156108cb578182fd5b6108d7858286016107cf565b9150509250929050565b6000806000606084860312156108f5578081fd5b83359250602084013567ffffffffffffffff80821115610913578283fd5b61091f878388016107cf565b93506040860135915080821115610934578283fd5b50610941868287016107cf565b9150509250925092565b60008151808452815b8181101561097057602081850181015186830182015201610954565b818111156109815782602083870101525b50601f01601f19169290920160200192915050565b600080835482600182811c9150808316806109b257607f831692505b60208084108214156109d257634e487b7160e01b87526022600452602487fd5b8180156109e657600181146109f757610a23565b60ff19861689528489019650610a23565b60008a815260209020885b86811015610a1b5781548b820152908501908301610a02565b505084890196505b509498975050505050505050565b60006020808301818452808551808352604092508286019150828160051b870101848801865b83811015610abd57603f19898403018552815160808151818652610a7d8287018261094b565b915050888201518582038a870152610a95828261094b565b838a0151878b0152606093840151939096019290925250509386019390860190600101610a57565b509098975050505050505050565b60208152600061087d602083018461094b565b608081526000610af1608083018761094b565b8281036020840152610b03818761094b565b604084019590955250506060015292915050565b600181811c90821680610b2b57607f821691505b60208210811415610b4c57634e487b7160e01b600052602260045260246000fd5b50919050565b6000600019821415610b7257634e487b7160e01b81526011600452602481fd5b5060010190565b634e487b7160e01b600052604160045260246000fdfea264697066735822122047f48a1034574786d077fe4fa0647abc60db1078d44dbf78f14f7fc91ee3384664736f6c63430008040033290decd9548b62a8d60345a988386fc84ba6bc95484008f6362f93160ef3e563",
  "linkReferences": {},
  "deployedLinkReferences": {}
}